:03000000020AFAF7
:0C0AFA00787FE4F6D8FD758121020B41E5
:1005F9007825642025640A007365746469616E6CEA
:1006090069750041422530346445253034644325F9
:100619003034645625303464423130230025730068
:1006290067657420786975676169726563202564F7
:100639000D0A00000000000000000000000000009A
:1006490000000000000000000000000000000000A1
:100659000000000000000000000000000000000091
:100669000000000000000000000000000000000081
:100679000000000000000000000000000000000071
:100689000000000000000000000000000000000061
:10069900000000000000007364736473643A7365BA
:1006A900746469616E6C697537363000000000004A
:1006B9000000000000000000000000000000000031
:1006C9000000000000000000000000000000000021
:1006D9000000000000000000000000000000000011
:1006E9000000000000000000000000000000000001
:0B06F9000000000000000000000000F6
:0A10B100420008000042000A00009F
:100D7F009002C4EBF0A3EAF0A3E9F09002C4E0FB09
:100D8F00A3E0FAA3E0F91204F1FFEF601E9002C492
:100D9F00E0FBA3E0FAA3E0F91204F1FF12107B903D
:0C0DAF0002C5E475F00112050A80D02294
:100F41007593007594007591007592007595007503
:100F5100960075B10075B20075B30075B40075C91E
:050F61000075CA00222A
:1008BE009002D0EEF0A3EFF09002D0E0FEA3E0FFA6
:1008CE00EF4E7007A2A4E4FE33FF229002D0E0FEAA
:1008DE00A3E0FFEF64014E7007A2A5E4FE33FF22F2
:1008EE009002D0E0FEA3E0FFEF64024E7007A2A6D6
:1008FE00E4FE33FF229002D0E0FEA3E0FFEF64039C
:10090E004E7007A2A7E4FE33FF229002D0E0FEA3B2
:10091E00E0FFEF64044E7007A2C5E4FE33FF2290A1
:10092E0002D0E0FEA3E0FFEF64054E7007A2C6E41E
:10093E00FE33FF229002D0E0FEA3E0FFEF64064EEE
:10094E007007A282E4FE33FF229002D0E0FEA3E005
:10095E00FFEF64074E7007A283E4FE33FF2290027E
:10096E00D0E0FEA3E0FFEF64084E7007A284E4FE21
:10097E0033FF229002D0E0FEA3E0FFEF64094E7039
:08098E0006A2CAE4FE33FF22B9
:100B86009002AAE4F0A3E4F09002AAE0FEA3E0FF3C
:100B9600C3EF940AEE6480948050629002AAE0FE4D
:100BA600A3E0FF1208BE90027EEEF0A3EFF07B01F9
:100BB6007A0279ACC003C002C0017BFF7A0579F9DD
:100BC600900279EBF0A3EAF0A3E9F09002AAE0FE26
:100BD600A3E0FF90027CEEF0A3EFF0D001D002D0AC
:100BE600031200FB7B017A0279AC120C6C9002AB0B
:0D0BF600E004F070069002AAE004F0808B8D
:010C030022CE
:080C04009002BEEEF0A3EFF038
:100C0C009002BEE0FEA3E0FF9002C0EEF0A3EFF076
:100C1C009002C0E0FEA3E0FFD3EF9400EE6480945A
:100C2C0080403C9002C2E4F0A374DCF09002C2E07D
:100C3C00FEA3E0FFD3EF9400EE648094804010900C
:100C4C0002C3E024FFF09002C2E034FFF080DD909C
:0F0C5C0002C1E024FFF09002C0E034FFF080B14D
:010C6B002266
:0B0A55009002B6EBF0A3EAF0A3E9F07A
:100A60009002B6E0FBA3E0FAA3E0F9C003C002C025
:100A7000017BFF7A0679019002A1EBF0A3EAF0A3D3
:100A8000E9F0D001D002D0031209969002B9EBF040
:100A9000A3EAF0A3E9F09002B9E0FBA3E0FAA3E037
:100AA000F9AE02AF01EF4E60507BFF7A067901127A
:100AB000000E9002B9E0FBA3E0FAA3E0F9E92FF9F8
:100AC000EA3EFA1207E39002BCEEF0A3EFF09002C8
:100AD000BCE0FEA3E0FFEF64FF7003EE64FF60196B
:100AE000900008E4F0A37401F09002BCE0FEA3E0E3
:090AF000FF90000AEEF0A3EFF004
:010AF90022DA
:080704009001A8EEF0A3EFF054
:10070C009001AA7407F0A374FFF07BFF7A06793C82
:10071C00C003C002C0017B017A0179ACA801AC0214
:10072C00AD03D001D002D0037E007F641204CB7BDA
:10073C00017A0179ACC003C002C0017BFF7A067953
:10074C000C900279EBF0A3EAF0A3E9F09001AAE097
:10075C00FEA3E0FF90027CEEF0A3EFF09001A8E086
:10076C00FEA3E0FF90027EEEF0A3EFF09001A8E074
:10077C00FEA3E0FFC374FF9FFF740F9EFE900280E8
:10078C00EEF0A3EFF09001AAE0FEA3E0FFC374FF2C
:10079C009FFF740F9EFE900282EEF0A3EFF0D0014B
:1007AC00D002D0031200FB7BFF7A067926C003C06F
:1007BC0002C0017B017A0179AC900279EBF0A3EADB
:1007CC00F0A3E9F0D001D002D0031201017B017A31
:0607DC000179AC120DF7DB
:0107E20022F4
:100E6E00900008E0FEA3E0FFEF4E602C900008E437
:100E7E00F0A3E4F07BFF7A06792990000AE0FEA346
:100E8E00E0FF900279EEF0A3EFF012010190000A5C
:090E9E00E0FEA3E0FF12070422AC
:100046007BFF7A0679A0C003C002C0017B017A0259
:100056007910A801AC02AD03D001D002D0037E0016
:100066007F641204CB120F41120FD1121029120015
:1000760026120FF27F647E00120C04120E6E80F4BC
:010086002257
:100CB4009002D4EFF09002D4E0FF900010E475F0BD
:100CC40001120520ADF0FC74E02DF58274003CF5B2
:100CD40083EFF0900010E0FEA3E0FFD3EF9450EE1A
:100CE40094004008900010E4F0A3E4F0900004E4C1
:060CF400F0A37414F022CD
:100FB0007B017A0079E0120A557E007F647D007B18
:100FC000017A0079E0120536900010E4F0A3E4F015
:010FD00022FE
:100EDF00900004E0FEA3E0FFD3EF9400EE64809453
:100EEF0080401D900005E024FFF0900004E034FFE7
:100EFF00F0900004E0FEA3E0FFEF4E7003120FB07E
:010F0F0022BF
:100CFA009002D5EFF09002D5E0FF90000CE475F079
:100D0A0001120520ADF0FC74182DF58274003CF533
:100D1A0083EFF090000CE0FEA3E0FFD3EF9450EED7
:100D2A009400400890000CE4F0A3E4F0900000E482
:060D3A00F0A37414F02286
:101011007E007F647D007B017A007918120536908D
:08102100000CE4F0A3E4F0224E
:100F1000900000E0FEA3E0FFD3EF9400EE64809425
:100F200080401D900001E024FFF0900000E034FFBD
:100F3000F0900000E0FEA3E0FFEF4E7003121011EE
:010F4000228E
:03000B00020E33AF
:100E3300C0E0C0F0C083C082C0D075D000C000C085
:100E430001C002C003C004C005C006C007120EDF04
:100E5300D007D006D005D004D003D002D001D000F3
:0B0E6300D0D0D082D083D0F0D0E0329D
:03002300020D408B
:100D4000C0E0C0F0C083C082C0D075D000C000C079
:070D500004C005C006C00746
:100D5700309809C298AF99120CFA8002C29930995B
:030D670002C2992C
:100D6A00D007D006D005D004D000D0D0D082D0830E
:050D7A00D0F0D0E032D2
:03004300020F6643
:100F6600C0E0C083C082E59A30E009539AFE900043
:100F760015E59BF0E59A30E105539AFDC20AD08249
:050F8600D083D0E03231
:03008B00020EA7BB
:100EA700C0E0C0F0C083C082C0D075D008E5AC30C8
:100EB700E01153ACFE900016E5ADF0900016E0FF90
:100EC700120CB4E5AC30E10553ACFDC20BD0D0D069
:080ED70082D083D0F0D0E0329C
:03009300020F8BCE
:100F8B00C0E0C083C082E58430E0095384FE90004A
:100F9B0017E585F0E58430E1055384FDC20CD08262
:050FAB00D083D0E0320C
:0510BB004202D2000119
:10102900438E805389F0758A9A758CA9C28DD2B97D
:07103900D2A9D28CD2AF2234
:10002600759850438E40538EFE53890F758B8F758E
:0B0036008DFDC2ABD28ED2ACD2AF2247
:100FD10075AC1053ACBF759A50438E0475D78F759D
:100FE100D6FD438E1043AF0143AF08D2AF53BAFDD4
:010FF10022DD
:100FF20075841043844043D12075D38F75D2FD434D
:0F100200D1805384DF53847F43AF104384102287
:101040009002D7EFF0C2999002D7E0FF8F993099C4
:04105000FDD2AF22FC
:10107B009002D8EFF0200AFDD20A9002D8E0FF8F41
:02108B009B22A6
:10108D009002D9EFF0200BFDD20B9002D9E0FF8F2B
:02109D00AD2282
:100DBB009002C7EBF0A3EAF0A3E9F09002C7E0FBC7
:100DCB00A3E0FAA3E0F91204F1FFEF601E9002C753
:100DDB00E0FBA3E0FAA3E0F91204F1FF12108D90EF
:0C0DEB0002C8E475F00112050A80D02255
:10109F009002DAEFF0200CFDD20C9002DAE0FF8F15
:0210AF00852298
:100DF7009002CAEBF0A3EAF0A3E9F09002CAE0FB85
:100E0700A3E0FAA3E0F91204F1FFEF601E9002CA13
:100E1700E0FBA3E0FAA3E0F91204F1FF12109F90A0
:0C0E270002CBE475F00112050A80D02215
:100C6C009002CDEBF0A3EAF0A3E9F09002D2E0FE03
:100C7C00A3E0FFEF4E60309002CDE0FBA3E0FAA3BF
:100C8C00E0F91204F1FFEF601E9002CDE0FBA3E04F
:100C9C00FAA3E0F91204F1FF1210409002CEE475B1
:080CAC00F00112050A80D022BC
:101068009002DBEFF09002DBE0FF1210409002DB11
:03107800E0FF2274
:100B0600020046E493A3F8E493A34003F68001F2BF
:100B160008DFF48029E493A3F85407240CC8C333F0
:100B2600C4540F4420C8834004F456800146F6DFBF
:100B3600E4800B01020408102040809010B1E47E8E
:100B4600019360BCA3FF543F30E509541FFEE493B4
:100B5600A360010ECF54C025E060A840B8E493A37B
:100B6600FAE493A3F8E493A3C8C582C8CAC583CAA6
:100B7600F0A3C8C582C8CAC583CADFE9DEE780BE5E
:0110C000002F
:1003FB00E709F608DFFA8046E709F208DFFA803EE4
:10040B0088828C83E709F0A3DFFA8032E309F608D0
:10041B00DFFA8078E309F208DFFA807088828C8338
:10042B00E309F0A3DFFA806489828A83E0A3F608EC
:10043B00DFFA805889828A83E0A3F208DFFA804CC6
:10044B0080D280FA80C680D4806980F2803380109D
:10045B0080A680EA809A80A880DA80E280CA803306
:10046B0089828A83ECFAE493A3C8C582C8CCC5837E
:10047B00CCF0A3C8C582C8CCC583CCDFE9DEE7804E
:10048B000D89828A83E493A3F608DFF9ECFAA9F0CD
:10049B00EDFB2289828A83ECFAE0A3C8C582C8CC23
:1004AB00C583CCF0A3C8C582C8CCC583CCDFEADE3C
:1004BB00E880DB89828A83E493A3F208DFF980CC9E
:1004CB0088F0EF60010E4E60C388F0ED2402B40497
:1004DB000050B9F582EB2402B4040050AF2323453E
:0604EB00822390044B7314
:1004F100BB010689828A83E0225002E722BBFE0209
:09050100E32289828A83E493223B
:10050A00C5F0F8A3E028F0C5F0F8E582158270027C
:06051A001583E038F02219
:10052000A3F8E0C5F025F0F0E5821582700215838E
:06053000E0C838F0E822EB
:10009600E5102479F582E43402F583E00510229018
:1000A6000276300703900279E475F0011205B30277
:1000B60004F12000E97F2ED2008018EF540F24901F
:1000C600D43440D4FF30040BEF24BFB41A005003DD
:1000D6002461FFE511600215110514E5147002058F
:1000E6001330070E900276E475F0011205B3EF02A5
:1000F600058F0210687403D2078003E4C207F51067
:100106009002761205CAE4F511F513F514E51160AF
:10011600077F201200D980F57512FFC201C200C206
:1001260002C203C205C206C2081200A5FF700D3046
:1001360007057F001200EAAF14AE1322B4255FC292
:10014600D5C2041200A5FF24D0B40A00501A75F0D7
:100156000A781130D50508B6FF0106C6A426F62092
:10016600D5047002D20380D924CFB41A00EF50040C
:10017600C2E5D2040202EBD20180C6D20080C0D210
:100186000280BCD2D580BAD20580B47F201200D9B5
:100196002002077401B5110040F1120096FF12000B
:1001A600D9020113D208D2068095120096FB1200DE
:1001B60096FA120096F94A4B700679BC7A037BFFD1
:1001C60020022EE511602A7E008E827583001205BC
:1001D6006260060EEE651270F0C2D5EBC0E0EAC0B2
:1001E600E0E9C0E0EE120332D0E0F9D0E0FAD0E068
:1001F600FB1204F1FF60AAEBC0E0EAC0E0E9C0E050
:100206001200D9D0E02401F9D0E03400FAD0E0FBA6
:10021600E5120460DCD512D980877BFF7A03792E3C
:10022600D202809C791080027908C206C208800832
:10023600D2D5790A8004790AC2D5E512047002F58E
:1002460012E4FAFDFEFF120096FC7B082001131251
:100256000096FD7B1030000A120096FE120096FFF3
:100266007B20EC3382D592D55013C3E43000069F31
:10027600FFE49EFEE42001039DFDE49CFCE4CBF834
:10028600C201EC700CCFCECDCCE824F8F870F38028
:1002960017C3EF33FFEE33FEED33FDEC33FCEB33E8
:1002A600FB994002FB0FD8E9EB300105F8D0E0C41A
:1002B60048B201C0E00AEC4D4E4F78207B0070C278
:1002C600EAB5120040BCC0E0120334D0F0D0E02002
:1002D6000104C4C0E0C4B201C0F01200C2D0F0D51F
:1002E600F0EB0201131205D301B053022A58018123
:1002F6004C017D42022E4F02364402364901964396
:08030600023C550220460220D2
:10030E004502204703DC5001852D01892E01AC2BBF
:10031E00018D2301AA2003C52A014548000001A42E
:10032E003F3F3F00790AA2D5200314300509B910CA
:10033E00020404B9080104A2D520060250010420CB
:10034E0002689202B511005034C0E07F20300319CC
:10035E007F30A20272067205500F12038BC202C2C8
:10036E0006C205C2087F30800F300503E9C0E012D7
:10037E0000D9300503D0E0F9D0E0B511CC30051727
:10038E007F30B9100C1200D97F583004077F788067
:10039E0003B908031200D93002057F2D0200D97F60
:1003AE00202008F87F2B2006F322920280CF286EA1
:1003BE00756C6C2900D2011200963001F8C20178DA
:1003CE001130D50108F60201452D5043495812004F
:1003DE00962403B405004001E49003D7931200CA9B
:0D03EE00743A1200CAD20375110402022AEB
:10000E00E4FFFE1204F1600C0FEF70010E09E970AF
:05001E00F20A80EF2250
:1009960090029EEBF0A3EAF0A3E9F0A3E0FBA3E04C
:1009A600FAA3E0F91204F17003020A4290029EE0F3
:1009B600FBA3E0FAA3E0F91204F17003020A4E90D9
:1009C60002A1E0F9A3E0FAA3E0A3C9F0A3EAF0A329
:1009D600E9F090029EA3E0FAA3E0F99002A7EBF0FB
:1009E600A3EAF0A3E9F09002A4E0FBA3E0FAA3E0F7
:1009F600F91204F1FF60269002A7E0FBA3E0FAA338
:100A0600E0F91204F16F70159002A575F001120558
:100A16000A9002A8E475F00112050A80C99002A4A2
:100A2600E0FBA3E0FAA3E0F91204F17002800D9056
:100A3600029FE475F00112050A0209B290029EE0D7
:0F0A4600FBA3E0FAA3E0F9227B007A00790022FB
:1007E30090029EEBF0A3EAF0A3E9F090029EE0FBF7
:1007F300A3E0FAA3E0F91204F1FF121054500C9095
:10080300029FE475F00112050A80E0D20990029E6E
:10081300E0FBA3E0FAA3E0F91204F1FF642B600408
:10082300EFB42D1D90029EE0FBA3E475F0011205C9
:1008330020A9F0FA1204F1642D6003D38001C3925E
:1008430009E49002A1F0A3F090029EE0FBA3E0FA7A
:10085300A3E0F91204F1FF1210C1504290029EE08E
:10086300FBA3E0FAA3E0F91204F1FF3395E0FEEFF6
:1008730024D0FBEE34FFFA9002A1E0FEA3E0FF7C5C
:10088300007D0A1205A1EF2BFFEE3A9002A1F0A31F
:10089300EFF090029FE475F00112050A80AA300977
:1008A3000A9002A1E0FEA3E0FF800F9002A1E0FE08
:0B08B300A3E0FFC3E49FFFE49EFE22D1
:10053600EF4E6012EF60010EEDBB010B89828A83DC
:10054600F0A3DFFCDEFA2289F05007F709DFFCA9E9
:0C055600F022BBFEFCF309DFFCA9F02240
:10056200BB010CE58229F582E5833AF583E022504E
:1005720006E92582F8E622BBFE06E92582F8E22298
:0D058200E58229F582E5833AF583E49322B2
:10058F00BB010689828A83F0225002F722BBFE014B
:02059F00F32245
:1005A100EF8DF0A4A8F0CF8CF0A428CE8DF0A42E6E
:0205B100FE2228
:1005B300F8E0FBA3A3E0F925F0F0E58215827002D1
:0705C3001583E0FA38F02275
:0905CA00EBF0A3EAF0A3E9F02232
:1005D300D083D082F8E4937012740193700DA3A3B7
:1005E30093F8740193F5828883E4737402936860CB
:0605F300EFA3A3A380DFCB
:0F10C100EFC394304007EF943A50028001C322EE
:10105400EFC394094005EF940E4004EFB42003D38A
:041064008001C32222
:00000001FF
