:03000000020910E2
:0C091000787FE4F6D8FD758121020957BC
:10099C007825642025640A007365746469616E6C43
:1009AC00697500676574207869756761697265633C
:1009BC00202564007364736473643A7365746469AA
:1009CC00616E6C6975373630000000000000000065
:1009DC00000000000000000000000000000000000B
:1009EC0000000000000000000000000000000000FB
:1009FC0000000000000000000000000000000000EB
:100A0C0000000000000000000000000000000000DA
:080A1C000000000000000000D2
:0A0E3A00420008000042000A000018
:100B980090025CEBF0A3EAF0A3E9F090025CE0FBC2
:100BA800A3E0FAA3E0F91204F1FFEF601E90025CE3
:100BB800E0FBA3E0FAA3E0F91204F1FF120E04909F
:0C0BC800025DE475F00112050A80D022E5
:100CE2007593007594007591007592007595007565
:100CF200960075B10075B20075B30075B40075C980
:050D02000075CA00228B
:1006D400900265EEF0A3EFF0900265E0FEA3E0FF68
:1006E400EF4E7007A2A4E4FE33FF22900265E0FE01
:1006F400A3E0FFEF64014E7007A2A5E4FE33FF22DE
:10070400900265E0FEA3E0FFEF64024E7007A2A62C
:10071400E4FE33FF22900265E0FEA3E0FFEF6403F2
:100724004E7007A2A7E4FE33FF22900265E0FEA309
:10073400E0FFEF64044E7007A2C5E4FE33FF22908D
:100744000265E0FEA3E0FFEF64054E7007A2C6E475
:10075400FE33FF22900265E0FEA3E0FFEF64064E45
:100764007007A282E4FE33FF22900265E0FEA3E05C
:10077400FFEF64074E7007A283E4FE33FF2290026A
:1007840065E0FEA3E0FFEF64084E7007A284E4FE78
:1007940033FF22900265E0FEA3E0FFEF64094E7090
:0807A40006A2CAE4FE33FF22A5
:100A2400900242E4F0A3E4F0900242E0FEA3E0FF6F
:100A3400C3EF940AEE648094805062900242E0FE18
:100A4400A3E0FF1206D4900216EEF0A3EFF07B01B0
:100A54007A027944C003C002C0017BFF7A09799C01
:100A6400900211EBF0A3EAF0A3E9F0900242E0FE59
:100A7400A3E0FF900214EEF0A3EFF0D001D002D077
:100A8400031200FB7B017A027944120B0A900243A1
:0D0A9400E004F07006900242E004F0808B58
:010AA1002232
:080AA200900256EEF0A3EFF004
:100AAA00900256E0FEA3E0FF900258EEF0A3EFF0AA
:100ABA00900258E0FEA3E0FFD3EF9400EE64809426
:100ACA0080403C90025AE4F0A374DCF090025AE0B1
:100ADA00FEA3E0FFD3EF9400EE6480948040109070
:100AEA00025BE024FFF090025AE034FFF080DD90D0
:0F0AFA000259E024FFF0900258E034FFF080B181
:010B090022C9
:0B086B0090024EEBF0A3EAF0A3E9F0CE
:1008760090024EE0FBA3E0FAA3E0F9C003C002C079
:10088600017BFF7A0979A4900239EBF0A3EAF0A381
:10089600E9F0D001D002D0031207AC900251EBF080
:1008A600A3EAF0A3E9F0900251E0FBA3E0FAA3E08B
:1008B600F9AE02AF01EF4E60507BFF7A0979A412C0
:1008C600000E900251E0FBA3E0FAA3E0F9E92FF94C
:1008D600EA3EFA1205F9900254EEF0A3EFF0900208
:1008E60054E0FEA3E0FFEF64FF7003EE64FF6019BF
:1008F600900008E4F0A37401F0900254E0FEA3E037
:09090600FF90000AEEF0A3EFF0EF
:01090F0022C5
:100CB400900008E0FEA3E0FFEF4E6021900008E4FE
:100CC400F0A3E4F07BFF7A0979AF90000AE0FEA379
:0E0CD400E0FF900211EEF0A3EFF012010122FA
:100046007BFF7A0979C0C003C002C0017B017A0137
:1000560079A8A801AC02AD03D001D002D0037E007E
:100066007F641204CB120CE2120D72120DB2120052
:1000760026120D937F647E00120AA2120CB480F43D
:010086002257
:100B5200900269EFF0900269E0FF900010E475F0F6
:100B620001120520ADF0FC74E02DF58274003CF515
:100B720083EFF0900010E0FEA3E0FFD3EF9450EE7D
:100B820094004008900010E4F0A3E4F0900004E424
:060B9200F0A37414F02230
:100D51007B017A0079E012086B7E007F647D007B65
:100D6100017A0079E0120536900010E4F0A3E4F076
:010D7100225F
:100C8300900004E0FEA3E0FFD3EF9400EE648094B1
:100C930080401D900005E024FFF0900004E034FF45
:100CA300F0900004E0FEA3E0FFEF4E7003120D513D
:010CB300221E
:03000B00020C10D4
:100C1000C0E0C0F0C083C082C0D075D000C000C0AA
:100C200001C002C003C004C005C006C007120C8387
:100C3000D007D006D005D004D003D002D001D00018
:0B0C4000D0D0D082D083D0F0D0E032C2
:03002300020E4A80
:0E0E4A00309804C2988002C299309902C29971
:010E58003267
:03004300020D07A4
:100D0700C0E0C083C082E59A30E009539AFE9000A4
:100D170015E59BF0E59A30E105539AFDC20AD082AA
:050D2700D083D0E03292
:03008B00020C4B19
:100C4B00C0E0C0F0C083C082C0D075D008E5AC3026
:100C5B00E01153ACFE900016E5ADF0900016E0FFEE
:100C6B00120B52E5AC30E10553ACFDC20BD0D0D02A
:080C7B0082D083D0F0D0E032FA
:03009300020D2C2F
:100D2C00C0E0C083C082E58430E0095384FE9000AB
:100D3C0017E585F0E58430E1055384FDC20CD082C3
:050D4C00D083D0E0326D
:050E44004202670001FD
:100DB200438E805389F0758A9A758CA9C28DD2B9F7
:070DC200D2A9D28CD2AF22AE
:10002600759850438E40538EFE53890F758B8F758E
:0B0036008DFDC2ABD28ED2ACD2AF2247
:100D720075AC1053ACBF759A50438E0475D78F75FE
:100D8200D6FD438E1043AF0143AF08D2AF53BAFD35
:010D9200223E
:100D930075841043844043D12075D38F75D2FD43AE
:0F0DA300D1805384DF53847F43AF1043841022E9
:100DC90090026BEFF0C29990026BE0FF8F99309916
:040DD900FDD2AF2276
:100E040090026CEFF0200AFDD20A90026CE0FF8F92
:020E14009B221F
:100E160090026DEFF0200BFDD20B90026DE0FF8F7C
:020E2600AD22FB
:100BD40090025FEBF0A3EAF0A3E9F090025FE0FB80
:100BE400A3E0FAA3E0F91204F1FFEF601E90025FA4
:100BF400E0FBA3E0FAA3E0F91204F1FF120E169051
:0C0C04000260E475F00112050A80D022A5
:100E280090026EEFF0200CFDD20C90026EE0FF8F66
:020E3800852211
:100B0A00900262EBF0A3EAF0A3E9F0900267E0FE3C
:100B1A00A3E0FFEF4E6030900262E0FBA3E0FAA38D
:100B2A00E0F91204F1FFEF601E900262E0FBA3E01D
:100B3A00FAA3E0F91204F1FF120DC9900263E475F9
:080B4A00F00112050A80D0221F
:100DF10090026FEFF090026FE0FF120DC990026F49
:030E0100E0FF22ED
:10091C00020046E493A3F8E493A34003F68001F2AB
:10092C0008DFF48029E493A3F85407240CC8C333DC
:10093C00C4540F4420C8834004F456800146F6DFAB
:10094C00E4800B0102040810204080900E3AE47EF3
:10095C00019360BCA3FF543F30E509541FFEE493A0
:10096C00A360010ECF54C025E060A840B8E493A367
:10097C00FAE493A3F8E493A3C8C582C8CAC583CA92
:10098C00F0A3C8C582C8CAC583CADFE9DEE780BE4A
:010E490000A8
:1003FB00E709F608DFFA8046E709F208DFFA803EE4
:10040B0088828C83E709F0A3DFFA8032E309F608D0
:10041B00DFFA8078E309F208DFFA807088828C8338
:10042B00E309F0A3DFFA806489828A83E0A3F608EC
:10043B00DFFA805889828A83E0A3F208DFFA804CC6
:10044B0080D280FA80C680D4806980F2803380109D
:10045B0080A680EA809A80A880DA80E280CA803306
:10046B0089828A83ECFAE493A3C8C582C8CCC5837E
:10047B00CCF0A3C8C582C8CCC583CCDFE9DEE7804E
:10048B000D89828A83E493A3F608DFF9ECFAA9F0CD
:10049B00EDFB2289828A83ECFAE0A3C8C582C8CC23
:1004AB00C583CCF0A3C8C582C8CCC583CCDFEADE3C
:1004BB00E880DB89828A83E493A3F208DFF980CC9E
:1004CB0088F0EF60010E4E60C388F0ED2402B40497
:1004DB000050B9F582EB2402B4040050AF2323453E
:0604EB00822390044B7314
:1004F100BB010689828A83E0225002E722BBFE0209
:09050100E32289828A83E493223B
:10050A00C5F0F8A3E028F0C5F0F8E582158270027C
:06051A001583E038F02219
:10052000A3F8E0C5F025F0F0E5821582700215838E
:06053000E0C838F0E822EB
:10009600E5102411F582E43402F583E00510229080
:1000A600020E300703900211E475F0011205B30247
:1000B60004F12000E97F2ED2008018EF540F24901F
:1000C600D43440D4FF30040BEF24BFB41A005003DD
:1000D6002461FFE511600215110514E5147002058F
:1000E6001330070E90020EE475F0011205B3EF020D
:1000F600058F020DF17403D2078003E4C207F510E1
:1001060090020E1205CAE4F511F513F514E5116017
:10011600077F201200D980F57512FFC201C200C206
:1001260002C203C205C206C2081200A5FF700D3046
:1001360007057F001200EAAF14AE1322B4255FC292
:10014600D5C2041200A5FF24D0B40A00501A75F0D7
:100156000A781130D50508B6FF0106C6A426F62092
:10016600D5047002D20380D924CFB41A00EF50040C
:10017600C2E5D2040202EBD20180C6D20080C0D210
:100186000280BCD2D580BAD20580B47F201200D9B5
:100196002002077401B5110040F1120096FF12000B
:1001A600D9020113D208D2068095120096FB1200DE
:1001B60096FA120096F94A4B700679BC7A037BFFD1
:1001C60020022EE511602A7E008E827583001205BC
:1001D6006260060EEE651270F0C2D5EBC0E0EAC0B2
:1001E600E0E9C0E0EE120332D0E0F9D0E0FAD0E068
:1001F600FB1204F1FF60AAEBC0E0EAC0E0E9C0E050
:100206001200D9D0E02401F9D0E03400FAD0E0FBA6
:10021600E5120460DCD512D980877BFF7A03792E3C
:10022600D202809C791080027908C206C208800832
:10023600D2D5790A8004790AC2D5E512047002F58E
:1002460012E4FAFDFEFF120096FC7B082001131251
:100256000096FD7B1030000A120096FE120096FFF3
:100266007B20EC3382D592D55013C3E43000069F31
:10027600FFE49EFEE42001039DFDE49CFCE4CBF834
:10028600C201EC700CCFCECDCCE824F8F870F38028
:1002960017C3EF33FFEE33FEED33FDEC33FCEB33E8
:1002A600FB994002FB0FD8E9EB300105F8D0E0C41A
:1002B60048B201C0E00AEC4D4E4F78207B0070C278
:1002C600EAB5120040BCC0E0120334D0F0D0E02002
:1002D6000104C4C0E0C4B201C0F01200C2D0F0D51F
:1002E600F0EB0201131205D301B053022A58018123
:1002F6004C017D42022E4F02364402364901964396
:08030600023C550220460220D2
:10030E004502204703DC5001852D01892E01AC2BBF
:10031E00018D2301AA2003C52A014548000001A42E
:10032E003F3F3F00790AA2D5200314300509B910CA
:10033E00020404B9080104A2D520060250010420CB
:10034E0002689202B511005034C0E07F20300319CC
:10035E007F30A20272067205500F12038BC202C2C8
:10036E0006C205C2087F30800F300503E9C0E012D7
:10037E0000D9300503D0E0F9D0E0B511CC30051727
:10038E007F30B9100C1200D97F583004077F788067
:10039E0003B908031200D93002057F2D0200D97F60
:1003AE00202008F87F2B2006F322920280CF286EA1
:1003BE00756C6C2900D2011200963001F8C20178DA
:1003CE001130D50108F60201452D5043495812004F
:1003DE00962403B405004001E49003D7931200CA9B
:0D03EE00743A1200CAD20375110402022AEB
:10000E00E4FFFE1204F1600C0FEF70010E09E970AF
:05001E00F20A80EF2250
:1007AC00900236EBF0A3EAF0A3E9F0A3E0FBA3E0A0
:1007BC00FAA3E0F91204F17003020858900236E033
:1007CC00FBA3E0FAA3E0F91204F1700302086490B1
:1007DC000239E0F9A3E0FAA3E0A3C9F0A3EAF0A37D
:1007EC00E9F0900236A3E0FAA3E0F990023FEBF0B7
:1007FC00A3EAF0A3E9F090023CE0FBA3E0FAA3E04B
:10080C00F91204F1FF602690023FE0FBA3E0FAA38B
:10081C00E0F91204F16F701590023D75F0011205AC
:10082C000A900240E475F00112050A80C990023C5E
:10083C00E0FBA3E0FAA3E0F91204F17002800D9042
:10084C000237E475F00112050A0207C8900236E07F
:0F085C00FBA3E0FAA3E0F9227B007A00790022E7
:1005F900900236EBF0A3EAF0A3E9F0900236E0FBB3
:10060900A3E0FAA3E0F91204F1FF120DDD500C90FA
:100619000237E475F00112050A80E0D2099002362A
:10062900E0FBA3E0FAA3E0F91204F1FF642B6004F4
:10063900EFB42D1D900236E0FBA3E475F00112051D
:1006490020A9F0FA1204F1642D6003D38001C3924A
:1006590009E4900239F0A3F0900236E0FBA3E0FA36
:10066900A3E0F91204F1FF120E595042900236E04C
:10067900FBA3E0FAA3E0F91204F1FF3395E0FEEFE2
:1006890024D0FBEE34FFFA900239E0FEA3E0FF7CB0
:10069900007D0A1205A1EF2BFFEE3A900239F0A373
:1006A900EFF0900237E475F00112050A80AA3009CB
:1006B9000A900239E0FEA3E0FF800F900239E0FEC4
:0B06C900A3E0FFC3E49FFFE49EFE22BD
:10053600EF4E6012EF60010EEDBB010B89828A83DC
:10054600F0A3DFFCDEFA2289F05007F709DFFCA9E9
:0C055600F022BBFEFCF309DFFCA9F02240
:10056200BB010CE58229F582E5833AF583E022504E
:1005720006E92582F8E622BBFE06E92582F8E22298
:0D058200E58229F582E5833AF583E49322B2
:10058F00BB010689828A83F0225002F722BBFE014B
:02059F00F32245
:1005A100EF8DF0A4A8F0CF8CF0A428CE8DF0A42E6E
:0205B100FE2228
:1005B300F8E0FBA3A3E0F925F0F0E58215827002D1
:0705C3001583E0FA38F02275
:0905CA00EBF0A3EAF0A3E9F02232
:1005D300D083D082F8E4937012740193700DA3A3B7
:1005E30093F8740193F5828883E4737402936860CB
:0605F300EFA3A3A380DFCB
:0F0E5900EFC394304007EF943A50028001C32258
:100DDD00EFC394094005EF940E4004EFB42003D304
:040DED008001C3229C
:00000001FF
