:03000000020946AC
:0C094600787FE4F6D8FD75812102009650
:0805DF009001B7EEF0A3EFF06C
:1005E7009001B7E0FEA3E0FF9001B9EEF0A3EFF0B2
:1005F7009001B9E0FEA3E0FFD3EF9400EE6480948E
:1006070080403C9001BBE4F0A374DCF09001BBE0B8
:10061700FEA3E0FFD3EF9400EE6480948040109037
:1006270001BCE024FFF09001BBE034FFF080DD90D7
:0F06370001BAE024FFF09001B9E034FFF080B188
:010646002291
:100916007F161208F27F541208F27F0D1208F22297
:100926007F161208F27F551208F27F0D1208F22286
:1007C7009001BDEBF0A3EAF0A3E9F09001BDE0FBD7
:1007D700A3E0FAA3E0F9120803FFEF601E9001BD42
:1007E700E0FBA3E0FAA3E0F9120803FF12000E9062
:0C07F70001BEE475F00112081C80D02245
:100711007F4212000E7F5312000E7F2012000E90B6
:100721000021E4F0A3E4F0900014E0FEA3E0FF90C8
:100731000021E0FCA3E0FDC3ED9FEC9E502790005B
:1007410021E0FEA3E0FF74EF2FF58274003EF583F4
:10075100E0FF12000E900022E004F07006900021EC
:0B076100E004F080C27F3B12000E227B
:10076C007F421200467F531200467F2012004690B3
:10077C000021E4F0A3E4F0900014E0FEA3E0FF906D
:10078C000021E0FCA3E0FDC3ED9FEC9E5027900000
:10079C0021E0FEA3E0FF74EF2FF58274003EF58399
:1007AC00E0FF120046900022E004F0700690002159
:0B07BC00E004F080C27F3B12004622E8
:100647007F4412000E7F4112000E7F2012000E9091
:100657000021E4F0A3E4F0900014E0FEA3E0FF9093
:100667000021E0FCA3E0FDC3ED9FEC9E5027900026
:1006770021E0FEA3E0FF74EF2FF58274003EF583BF
:10068700E0FF12000E900022E004F07006900021B7
:10069700E004F080C27F2C12000E7F3012000E7F24
:0506A7003B12000E22D1
:1006AC007F441200467F411200467F201200469084
:1006BC000021E4F0A3E4F0900014E0FEA3E0FF902E
:1006CC000021E0FCA3E0FDC3ED9FEC9E50279000C1
:1006DC0021E0FEA3E0FF74EF2FF58274003EF5835A
:1006EC00E0FF120046900022E004F070069000211A
:1006FC00E004F080C27F2C1200467F301200467F4F
:05070C003B1200462233
:100832009001C3E4F0A3E4F09001C3E0FEA3E0FF63
:10084200C3EF941EEE6480948050109001C4E004C3
:0B085200F070069001C3E004F080DDB0
:01085D002278
:10085E0075930075940075910075920075950075ED
:10086E00960075B10075B20075B30075B40075C908
:05087E000075CA002214
:1000260020A71830A11520A2127F327E001205DF0C
:0C00360020A70830A10520A202D2012260
:1009360020A50C7F327E001205DF20A502D20822F8
:1000960012085E1208A220A0141209267F647E00B0
:1000A6001205DF12092620A0ED80FB80E91208DB8D
:1000B6001208C0120883C208C201D2B7900002E437
:1000C600F0A3E4F0900004E4F0A3E4F0900006E46A
:1000D600F0A3E4F0900012E4F0A3E4F0900014E43E
:1000E600F0A3E4F0900016E4F0A3E4F0120926125F
:1000F60000263001FA120916900018E4F0A3E4F085
:10010600900018E0FEA3E0FFC3EF9464EE94005065
:10011600257F647E001205DF900004E0FEA3E0FF69
:10012600EF64014E6010900019E004F07006900034
:1001360018E004F080CA900004E0FEA3E0FFEF4E52
:100146007005120926C201900004E0FEA3E0FFEF4D
:1001560064014E709D900012E4F0A3E4F0C2021216
:10016600071112076C900004E0FEA3E0FFEF4E605B
:1001760081900002E0FEA3E0FFEF64014E70E6907E
:100186000002E4F0A3E4F07FC87E001205DF9000D1
:100196008BE0FFEF6453600302025090008CE0FF97
:1001A600EF6420600302025090008DE0FFEF6430A0
:1001B600600302025090008EE0FFEF642C600302A1
:1001C6000250900014E0FEA3E0FFC3EF9403EE9408
:1001D600004077D207C202900002E4F0A3E4F030B8
:1001E60007681209363008F7C208C2C320A4FDC248
:1001F600C4C2C2C2CC7F587E021205DFD2CCD2095D
:100206003009DC20A6FA7F327E001205DF20A6F038
:100216001206471206AC7F967E001205DFD2C27F19
:10022600967E001205DFD2C3D2C4C207900002E454
:10023600F0A3E4F0900004E4F0A3E4F0C208C201E5
:1002460030A5FDC2090200BC809590008BE0FFEF4F
:100256006453600302016B90008CE0FFEF64206042
:100266000302016B90008DE0FFEF64316003020131
:100276006B90008EE0FFEF642C600302016BC201FD
:10028600900004E4F0A3E4F0900002E4F0A3E4F0AC
:060296000200BC0200F8AA
:01029C00223F
:03000B0002055893
:10055800C0E0C083C082C0D075D000C006C007907C
:10056800000BE004F0700690000AE004F020A511EA
:1005780020080E900009E004F07006900008E004DE
:10058800F030A50A900008E4F0A3E4F0C208900057
:1005980008E0FEA3E0FFC3EF9432EE94004002D2DD
:1005A8000890000AE0FEA3E0FFD3EF94E8EE94037E
:1005B800400890000AE4F0A3E4F020A00D7F017E3B
:1005C800001205DF20A00375C760D007D006D0D081
:0705D800D082D083D0E03295
:030023000204B024
:1004B000C0E0C083C082C0D075D000C004C005C0F9
:1004C00006C00730987AC298AF997E0090001DEE62
:1004D000F0A3EFF030024390001DE0FEA3E0FF9098
:1004E0000012E0FCA3E0FD748B2DF58274003CF556
:1004F00083EFF0900013E004F07006900012E00427
:10050000F0900012E0FEA3E0FFC3EF9450EE9400E1
:100510004008900012E4F0A3E4F090001DE0FEA378
:10052000E0FFEF64424E701A200217D202900012D0
:10053000E4F0A3E4F0900002E4F0A37401F0800280
:10054000C299309902C299D007D006D005D004D004
:08055000D0D082D083D0E0324C
:03004300020404B0
:10040400C0E0C083C082C0D075D000C004C005C0A5
:1004140006C007E59A30E079539AFEAF9B7E0090C0
:10042400001DEEF0A3EFF030024390001DE0FEA3A8
:10043400E0FF900012E0FCA3E0FD748B2DF58274C4
:10044400003CF583EFF0900013E004F07006900098
:1004540012E004F0900012E0FEA3E0FFC3EF94501A
:10046400EE94004008900012E4F0A3E4F090001D24
:10047400E0FEA3E0FFEF64424E7016200213D202A6
:10048400900012E4F0A3E4F0900002E4F0A37401FD
:10049400F0E59A30E105539AFDC20AD007D006D0A0
:0C04A40005D004D0D0D082D083D0E0324C
:03008B000203531A
:10035300C0E0C083C082C0D075D008E5AC20E00304
:100363000203F153ACFEAFAD7E0090001FEEF0A38D
:10037300EFF030035E90001FE0FEA3E0FFEF64DECA
:100383004E700DC203900004E4F0A37401F08043A7
:1003930090001FE0FEA3E0FF900014E0FCA3E0FD4B
:1003A30074EF2DF58274003CF583EFF0900015E0B7
:1003B30004F07006900014E004F0900014E0FEA333
:1003C300E0FFC3EF9450EE94004008900014E4F073
:1003D300A3E4F090001FE0FEA3E0FFEF64AC4E70D7
:1003E3000D20030AD203900014E4F0A3E4F0E5AC7B
:1003F30030E10553ACFDC20BD0D0D082D083D0E026
:0104030032C6
:0300930002029DC9
:10029D00C0E0C083C082C0D075D000C004C005C00E
:1002AD0006C007E58420E0030203385384FEAF85C2
:1002BD007E00900023EEF0A3EFF030044590002374
:1002CD00E0FEA3E0FFEF643B4E700DC2049000060C
:1002DD00E4F0A37401F0802A900023E0FEA3E0FF78
:1002ED00900016E0FCA3E0FD74532DF58274013CE3
:1002FD00F583EFF0900017E004F07006900016E023
:10030D0004F0900023E0FEA3E0FFEF64424E600E88
:10031D00900023E0FEA3E0FFEF64444E700D200437
:10032D000AD204900016E4F0A3E4F0E58430E10570
:10033D005384FDC20CD007D006D005D004D0D0D048
:06034D0082D083D0E032F3
:1008DB00438E805389F0758A9A758CA9C28DD2B9D3
:0708EB00D2A9D28CD2AF228A
:1008C000759850438E40538EFE53890F758B8F75EC
:0B08D0008DFDC2ABD28ED2ACD2AF22A5
:1008A20075AC1053ACBF759A50438E0475D78F75D3
:0E08B200D6FD438E1043AF0143AF08D2AF22F4
:1008830075841043844043D12075D38F75D2FD43C3
:0F089300D1805384DF53847F43AF1043841022FE
:050046009001C0EFF085
:10004B00C2AFC2999001C0E0FF8F9920992E900109
:10005B00C1E4F0A3E4F09001C1E0FEA3E0FFC3EF25
:10006B0094D0EE6480948750132099109001C2E0D5
:0E007B0004F070069001C1E004F080DAD2AF0C
:010089002254
:10000E009001C5EFF0200AFDD20A9001C5E0FF8FE6
:02001E009B2223
:1008F2009001C6EFF0200BFDD20B9001C6E0FF8FF6
:02090200AD2224
:100904009001C7EFF0200CFDD20C9001C7E0FF8FDF
:0209140085223A
:10080300BB010689828A83E0225002E722BBFE02F3
:09081300E32289828A83E4932226
:10081C00C5F0F8A3E028F0C5F0F8E5821582700267
:06082C001583E038F02204
:00000001FF
