:030000000205876F
:0C058700787FE4F6D8FD7581210205CED6
:0E0968007825642025640A00313233343500CE
:100691006064000000000000000000000000000095
:1006A1000000000000000000000000000000000049
:1006B1000000000000000000000000000000000039
:1006C1000000000000000000000000000000000029
:1006D1000000000000000000000000000000000019
:1006E1000000000000000000000000000000000009
:0C06F10000000000000000004100680054
:10004600900243EBF0A3EAF0A3E9F0900243E0FB51
:10005600A3E0FAA3E0F91204D3FFEF601E90024377
:10006600E0FBA3E0FAA3E0F91204D3FF1209239000
:0C0076000244E475F0011204EC80D0227A
:1008A70075930075940075910075920075950075A4
:1008B700960075B10075B20075B30075B40075C9BF
:0508C7000075CA0022CB
:1003FB0090024CEEF0A3EFF090024CE0FEA3E0FF76
:10040B00EF4E7007A2A4E4FE33FF2290024CE0FEF5
:10041B00A3E0FFEF64014E7007A2A5E4FE33FF22B9
:10042B0090024CE0FEA3E0FFEF64024E7007A2A621
:10043B00E4FE33FF2290024CE0FEA3E0FFEF6403E7
:10044B004E7007A2A7E4FE33FF2290024CE0FEA3FE
:10045B00E0FFEF64044E7007A2C5E4FE33FF229069
:10046B00024CE0FEA3E0FFEF64054E7007A2C6E46A
:10047B00FE33FF2290024CE0FEA3E0FFEF64064E3A
:10048B007007A282E4FE33FF2290024CE0FEA3E051
:10049B00FFEF64074E7007A283E4FE33FF22900246
:1004AB004CE0FEA3E0FFEF64084E7007A284E4FE6D
:1004BB0033FF2290024CE0FEA3E0FFEF64094E7085
:0804CB0006A2CAE4FE33FF2281
:10061300900231E4F0A3E4F0900231E0FEA3E0FFA6
:10062300C3EF940AEE648094805062900231E0FE3E
:10063300A3E0FF1203FB900211EEF0A3EFF07B01A6
:100643007A027933C003C002C0017BFF7A0979685B
:1006530090020CEBF0A3EAF0A3E9F0900231E0FE84
:10066300A3E0FF90020FEEF0A3EFF0D001D002D091
:10067300031200FB7B017A02793312076B9002327B
:0D068300E004F07006900231E004F0808B7E
:010690002247
:0807030090023DEEF0A3EFF0BF
:10070B0090023DE0FEA3E0FF90023FEEF0A3EFF07E
:10071B0090023FE0FEA3E0FFD3EF9400EE648094E1
:10072B0080403C900241E4F0A374DCF0900241E085
:10073B00FEA3E0FFD3EF9400EE6480948040109012
:10074B000242E024FFF0900241E034FFF080DD90A4
:0F075B000240E024FFF090023FE034FFF080B155
:01076A00226C
:100859001208A71208CC12090C1200261208ED7F03
:10086900647E001207037BFF7A09797012076B7F98
:070879006112093580E9223C
:03000B00020009E7
:0100090032C4
:06000300900250EFF02214
:0300230002095976
:0E095900309804C2988002C299309902C29967
:01096700325D
:030043000207B3FE
:1007B300C0E0C083C082C0D075D000C006C007E5CA
:1007C3009A30E00F539AFEAF9B7E00900073EEF0D9
:1007D300A3EFF0E59A30E105539AFDC209D007D0A3
:0A07E30006D0D0D082D083D0E032DF
:03008B0002082741
:10082700C0E0C083C082C0D075D008E5AC30E00F0F
:1008370053ACFEAFAD7E00900075EEF0A3EFF0E590
:10084700AC30E10553ACFDC20AD0D0D082D083D002
:02085700E0328D
:030093000207ED74
:1007ED00C0E0C083C082C0D075D000C006C007E590
:1007FD008430E00F5384FEAF857E00900077EEF0DD
:10080D00A3EFF0E58430E1055384FDC20BD007D092
:0A081D0006D0D0D082D083D0E032A4
:0506FD0042024E000165
:10090C00438E805389F0758A9A758CA9C28DD2B9A1
:07091C00D2A9D28CD2AF2258
:10002600759850438E40538EFE53890F758B8F758E
:0B0036008DFDC2ABD28ED2ACD2AF2247
:1008CC0075AC1053ACBF759A50438E0475D78F75A9
:1008DC00D6FD438E1043AF0143AF08D2AF53BAFDE0
:0108EC0022E9
:1008ED0075841043844043D12075D38F75D2FD4359
:0F08FD00D1805384DF53847F43AF104384102294
:05000E00900246EFF036
:0E001300C299900246E0FF8F993099FDD2AF5E
:0100210022BC
:10092300900252EFF02009FDD209900252E0FF8FAE
:020933009B2205
:10093500900253EFF0200AFDD20A900253E0FF8F98
:02094500AD22E1
:10094700900254EFF0200BFDD20B900254E0FF8F82
:020957008522F7
:10076B00900249EBF0A3EAF0A3E9F090024EE0FE11
:10077B00A3E0FFEF4E6030900249E0FBA3E0FAA349
:10078B00E0F91204D3FFEF601E900249E0FBA3E0F7
:10079B00FAA3E0F91204D3FF12000E90024AE4759B
:0807AB00F0011204EC80D022E1
:10059300020859E493A3F8E493A34003F68001F21D
:1005A30008DFF48029E493A3F85407240CC8C33369
:1005B300C4540F4420C8834004F456800146F6DF38
:1005C300E4800B0102040810204080900691E47E31
:1005D300019360BCA3FF543F30E509541FFEE4932D
:1005E300A360010ECF54C025E060A840B8E493A3F4
:1005F300FAE493A3F8E493A3C8C582C8CAC583CA1F
:10060300F0A3C8C582C8CAC583CADFE9DEE780BED6
:0107020000F6
:1004D300BB010689828A83E0225002E722BBFE0227
:0904E300E32289828A83E493225A
:1004EC00C5F0F8A3E028F0C5F0F8E582158270029B
:0604FC001583E038F02238
:10009600E510240CF582E43402F583E00510229085
:1000A600020930070390020CE475F00112054102C3
:1000B60004D32000E97F2ED2008018EF540F24903D
:1000C600D43440D4FF30040BEF24BFB41A005003DD
:1000D6002461FFE511600215110514E5147002058F
:1000E6001330070E900209E475F001120541EF0284
:1000F600052F0208807403D2078003E4C207F510B7
:10010600900209120558E4F511F513F514E511608E
:10011600077F201200D980F57512FFC201C200C206
:1001260002C203C205C206C2081200A5FF700D3046
:1001360007057F001200EAAF14AE1322B4255FC292
:10014600D5C2041200A5FF24D0B40A00501A75F0D7
:100156000A781130D50508B6FF0106C6A426F62092
:10016600D5047002D20380D924CFB41A00EF50040C
:10017600C2E5D2040202EBD20180C6D20080C0D210
:100186000280BCD2D580BAD20580B47F201200D9B5
:100196002002077401B5110040F1120096FF12000B
:1001A600D9020113D208D2068095120096FB1200DE
:1001B60096FA120096F94A4B700679BC7A037BFFD1
:1001C60020022EE511602A7E008E827583001205BC
:1001D6000260060EEE651270F0C2D5EBC0E0EAC012
:1001E600E0E9C0E0EE120332D0E0F9D0E0FAD0E068
:1001F600FB1204D3FF60AAEBC0E0EAC0E0E9C0E06E
:100206001200D9D0E02401F9D0E03400FAD0E0FBA6
:10021600E5120460DCD512D980877BFF7A03792E3C
:10022600D202809C791080027908C206C208800832
:10023600D2D5790A8004790AC2D5E512047002F58E
:1002460012E4FAFDFEFF120096FC7B082001131251
:100256000096FD7B1030000A120096FE120096FFF3
:100266007B20EC3382D592D55013C3E43000069F31
:10027600FFE49EFEE42001039DFDE49CFCE4CBF834
:10028600C201EC700CCFCECDCCE824F8F870F38028
:1002960017C3EF33FFEE33FEED33FDEC33FCEB33E8
:1002A600FB994002FB0FD8E9EB300105F8D0E0C41A
:1002B60048B201C0E00AEC4D4E4F78207B0070C278
:1002C600EAB5120040BCC0E0120334D0F0D0E02002
:1002D6000104C4C0E0C4B201C0F01200C2D0F0D51F
:1002E600F0EB02011312056101B053022A58018195
:1002F6004C017D42022E4F02364402364901964396
:08030600023C550220460220D2
:10030E004502204703DC5001852D01892E01AC2BBF
:10031E00018D2301AA2003C52A014548000001A42E
:10032E003F3F3F00790AA2D5200314300509B910CA
:10033E00020404B9080104A2D520060250010420CB
:10034E0002689202B511005034C0E07F20300319CC
:10035E007F30A20272067205500F12038BC202C2C8
:10036E0006C205C2087F30800F300503E9C0E012D7
:10037E0000D9300503D0E0F9D0E0B511CC30051727
:10038E007F30B9100C1200D97F583004077F788067
:10039E0003B908031200D93002057F2D0200D97F60
:1003AE00202008F87F2B2006F322920280CF286EA1
:1003BE00756C6C2900D2011200963001F8C20178DA
:1003CE001130D50108F60201452D5043495812004F
:1003DE00962403B405004001E49003D7931200CA9B
:0D03EE00743A1200CAD20375110402022AEB
:10050200BB010CE58229F582E5833AF583E02250AE
:1005120006E92582F8E622BBFE06E92582F8E222F8
:0D052200E58229F582E5833AF583E4932212
:10052F00BB010689828A83F0225002F722BBFE01AB
:02053F00F322A5
:10054100F8E0FBA3A3E0F925F0F0E5821582700243
:070551001583E0FA38F022E7
:09055800EBF0A3EAF0A3E9F022A4
:10056100D083D082F8E4937012740193700DA3A329
:1005710093F8740193F5828883E47374029368603D
:06058100EFA3A3A380DF3D
:10088000EFB40A07740D12088B740A309811A899F6
:10089000B8130CC2983098FDA899C298B811F630D8
:0708A00099FDC299F59922B0
:00000001FF
