:03000000020AFAF7
:0C0AFA00787FE4F6D8FD758121020B41E5
:1005F9007825642025640A007365746469616E6CEA
:1006090069750041422530346445253034644325F9
:100619003034645625303464423130230025730068
:1006290067657420786975676169726563202564F7
:100639000D0A00000000000000000000000000009A
:1006490000000000000000000000000000000000A1
:100659000000000000000000000000000000000091
:100669000000000000000000000000000000000081
:100679000000000000000000000000000000000071
:100689000000000000000000000000000000000061
:10069900000000000000007364736473643A7365BA
:1006A900746469616E6C697537363000000000004A
:1006B9000000000000000000000000000000000031
:1006C9000000000000000000000000000000000021
:1006D9000000000000000000000000000000000011
:1006E9000000000000000000000000000000000001
:0B06F9000000000000000000000000F6
:0A0FE300420008000042000A00006E
:100CFA009002C4EBF0A3EAF0A3E9F09002C4E0FB8F
:100D0A00A3E0FAA3E0F91204F1FFEF601E9002C417
:100D1A00E0FBA3E0FAA3E0F91204F1FF120FAD9091
:0C0D2A0002C5E475F00112050A80D02219
:100E8B0075930075940075910075920075950075BA
:100E9B00960075B10075B20075B30075B40075C9D5
:050EAB000075CA0022E1
:1008BE009002D0EEF0A3EFF09002D0E0FEA3E0FFA6
:1008CE00EF4E7007A2A4E4FE33FF229002D0E0FEAA
:1008DE00A3E0FFEF64014E7007A2A5E4FE33FF22F2
:1008EE009002D0E0FEA3E0FFEF64024E7007A2A6D6
:1008FE00E4FE33FF229002D0E0FEA3E0FFEF64039C
:10090E004E7007A2A7E4FE33FF229002D0E0FEA3B2
:10091E00E0FFEF64044E7007A2C5E4FE33FF2290A1
:10092E0002D0E0FEA3E0FFEF64054E7007A2C6E41E
:10093E00FE33FF229002D0E0FEA3E0FFEF64064EEE
:10094E007007A282E4FE33FF229002D0E0FEA3E005
:10095E00FFEF64074E7007A283E4FE33FF2290027E
:10096E00D0E0FEA3E0FFEF64084E7007A284E4FE21
:10097E0033FF229002D0E0FEA3E0FFEF64094E7039
:08098E0006A2CAE4FE33FF22B9
:100B86009002AAE4F0A3E4F09002AAE0FEA3E0FF3C
:100B9600C3EF940AEE6480948050629002AAE0FE4D
:100BA600A3E0FF1208BE90027EEEF0A3EFF07B01F9
:100BB6007A0279ACC003C002C0017BFF7A0579F9DD
:100BC600900279EBF0A3EAF0A3E9F09002AAE0FE26
:100BD600A3E0FF90027CEEF0A3EFF0D001D002D0AC
:100BE600031200FB7B017A0279AC120C6C9002AB0B
:0D0BF600E004F070069002AAE004F0808B8D
:010C030022CE
:080C04009002BEEEF0A3EFF038
:100C0C009002BEE0FEA3E0FF9002C0EEF0A3EFF076
:100C1C009002C0E0FEA3E0FFD3EF9400EE6480945A
:100C2C0080403C9002C2E4F0A374DCF09002C2E07D
:100C3C00FEA3E0FFD3EF9400EE648094804010900C
:100C4C0002C3E024FFF09002C2E034FFF080DD909C
:0F0C5C0002C1E024FFF09002C0E034FFF080B14D
:010C6B002266
:0B0A55009002B6EBF0A3EAF0A3E9F07A
:100A60009002B6E0FBA3E0FAA3E0F9C003C002C025
:100A7000017BFF7A0679019002A1EBF0A3EAF0A3D3
:100A8000E9F0D001D002D0031209969002B9EBF040
:100A9000A3EAF0A3E9F09002B9E0FBA3E0FAA3E037
:100AA000F9AE02AF01EF4E60507BFF7A067901127A
:100AB000000E9002B9E0FBA3E0FAA3E0F9E92FF9F8
:100AC000EA3EFA1207E39002BCEEF0A3EFF09002C8
:100AD000BCE0FEA3E0FFEF64FF7003EE64FF60196B
:100AE000900008E4F0A37401F09002BCE0FEA3E0E3
:090AF000FF90000AEEF0A3EFF004
:010AF90022DA
:080704009001A8EEF0A3EFF054
:10070C009001AA7407F0A374D0F07BFF7A06793CB1
:10071C00C003C002C0017B017A0179ACA801AC0214
:10072C00AD03D001D002D0037E007F641204CB7BDA
:10073C00017A0179ACC003C002C0017BFF7A067953
:10074C000C900279EBF0A3EAF0A3E9F09001AAE097
:10075C00FEA3E0FF90027CEEF0A3EFF09001A8E086
:10076C00FEA3E0FF90027EEEF0A3EFF09001AAE072
:10077C00FEA3E0FFC374FF9FFF740F9EFE900280E8
:10078C00EEF0A3EFF09001A8E0FEA3E0FFC374FF2E
:10079C009FFF740F9EFE900282EEF0A3EFF0D0014B
:1007AC00D002D0031200FB7BFF7A067926C003C06F
:1007BC0002C0017B017A0179AC900279EBF0A3EADB
:1007CC00F0A3E9F0D001D002D0031201017B017A31
:0607DC000179AC120D7260
:0107E20022F4
:100DE900900008E0FEA3E0FFEF4E602C900008E4BD
:100DF900F0A3E4F07BFF7A06792990000AE0FEA3CC
:100E0900E0FF900279EEF0A3EFF012010190000AE1
:090E1900E0FEA3E0FF1207042231
:100046007BFF7A0679A0C003C002C0017B017A0259
:100056007910A801AC02AD03D001D002D0037E0016
:100066007F641204CB120E8B120F1B120F5B120051
:1000760026120F3C7F647E00120C04120DE980F4F8
:010086002257
:100CB4009002D4EFF09002D4E0FF900010E475F0BD
:100CC40001120520ADF0FC74E02DF58274003CF5B2
:100CD40083EFF0900010E0FEA3E0FFD3EF9450EE1A
:100CE40094004008900010E4F0A3E4F0900004E4C1
:060CF400F0A37414F022CD
:100EFA007B017A0079E0120A557E007F647D007BCF
:100F0A00017A0079E0120536900010E4F0A3E4F0CB
:010F1A0022B4
:100E5A00900004E0FEA3E0FFD3EF9400EE648094D8
:100E6A0080401D900005E024FFF0900004E034FF6C
:100E7A00F0900004E0FEA3E0FFEF4E7003120EFABA
:010E8A002245
:03000B00020DAE35
:100DAE00C0E0C0F0C083C082C0D075D000C000C00B
:100DBE0001C002C003C004C005C006C007120E5A0F
:100DCE00D007D006D005D004D003D002D001D00079
:0B0DDE00D0D0D082D083D0F0D0E03223
:03002300020FF3D6
:0E0FF300309804C2988002C299309902C299C7
:0110010032BC
:03004300020EB0FA
:100EB000C0E0C083C082E59A30E009539AFE9000FA
:100EC00015E59BF0E59A30E105539AFDC20AD08200
:050ED000D083D0E032E8
:03008B00020E2240
:100E2200C0E0C0F0C083C082C0D075D008E5AC304D
:100E3200E01153ACFE900016E5ADF0900016E0FF15
:100E4200120CB4E5AC30E10553ACFDC20BD0D0D0EE
:080E520082D083D0F0D0E03221
:03009300020ED585
:100ED500C0E0C083C082E58430E0095384FE900001
:100EE50017E585F0E58430E1055384FDC20CD08219
:050EF500D083D0E032C3
:050FED004202D20001E8
:100F5B00438E805389F0758A9A758CA9C28DD2B94C
:070F6B00D2A9D28CD2AF2203
:10002600759850438E40538EFE53890F758B8F758E
:0B0036008DFDC2ABD28ED2ACD2AF2247
:100F1B0075AC1053ACBF759A50438E0475D78F7553
:100F2B00D6FD438E1043AF0143AF08D2AF53BAFD8A
:010F3B002293
:100F3C0075841043844043D12075D38F75D2FD4303
:0F0F4C00D1805384DF53847F43AF10438410223E
:100F72009002D6EFF0C2999002D6E0FF8F99309995
:040F8200FDD2AF22CB
:100FAD009002D7EFF0200AFDD20A9002D7E0FF8F12
:020FBD009B2275
:100FBF009002D8EFF0200BFDD20B9002D8E0FF8FFC
:020FCF00AD2251
:100D36009002C7EBF0A3EAF0A3E9F09002C7E0FB4C
:100D4600A3E0FAA3E0F91204F1FFEF601E9002C7D8
:100D5600E0FBA3E0FAA3E0F91204F1FF120FBF9043
:0C0D660002C8E475F00112050A80D022DA
:100FD1009002D9EFF0200CFDD20C9002D9E0FF8FE6
:020FE100852267
:100D72009002CAEBF0A3EAF0A3E9F09002CAE0FB0A
:100D8200A3E0FAA3E0F91204F1FFEF601E9002CA99
:100D9200E0FBA3E0FAA3E0F91204F1FF120FD190F5
:0C0DA20002CBE475F00112050A80D0229B
:100C6C009002CDEBF0A3EAF0A3E9F09002D2E0FE03
:100C7C00A3E0FFEF4E60309002CDE0FBA3E0FAA3BF
:100C8C00E0F91204F1FFEF601E9002CDE0FBA3E04F
:100C9C00FAA3E0F91204F1FF120F729002CEE47580
:080CAC00F00112050A80D022BC
:100F9A009002DAEFF09002DAE0FF120F729002DAB2
:030FAA00E0FF2243
:100B0600020046E493A3F8E493A34003F68001F2BF
:100B160008DFF48029E493A3F85407240CC8C333F0
:100B2600C4540F4420C8834004F456800146F6DFBF
:100B3600E4800B0102040810204080900FE3E47E5D
:100B4600019360BCA3FF543F30E509541FFEE493B4
:100B5600A360010ECF54C025E060A840B8E493A37B
:100B6600FAE493A3F8E493A3C8C582C8CAC583CAA6
:100B7600F0A3C8C582C8CAC583CADFE9DEE780BE5E
:010FF20000FE
:1003FB00E709F608DFFA8046E709F208DFFA803EE4
:10040B0088828C83E709F0A3DFFA8032E309F608D0
:10041B00DFFA8078E309F208DFFA807088828C8338
:10042B00E309F0A3DFFA806489828A83E0A3F608EC
:10043B00DFFA805889828A83E0A3F208DFFA804CC6
:10044B0080D280FA80C680D4806980F2803380109D
:10045B0080A680EA809A80A880DA80E280CA803306
:10046B0089828A83ECFAE493A3C8C582C8CCC5837E
:10047B00CCF0A3C8C582C8CCC583CCDFE9DEE7804E
:10048B000D89828A83E493A3F608DFF9ECFAA9F0CD
:10049B00EDFB2289828A83ECFAE0A3C8C582C8CC23
:1004AB00C583CCF0A3C8C582C8CCC583CCDFEADE3C
:1004BB00E880DB89828A83E493A3F208DFF980CC9E
:1004CB0088F0EF60010E4E60C388F0ED2402B40497
:1004DB000050B9F582EB2402B4040050AF2323453E
:0604EB00822390044B7314
:1004F100BB010689828A83E0225002E722BBFE0209
:09050100E32289828A83E493223B
:10050A00C5F0F8A3E028F0C5F0F8E582158270027C
:06051A001583E038F02219
:10052000A3F8E0C5F025F0F0E5821582700215838E
:06053000E0C838F0E822EB
:10009600E5102479F582E43402F583E00510229018
:1000A6000276300703900279E475F0011205B30277
:1000B60004F12000E97F2ED2008018EF540F24901F
:1000C600D43440D4FF30040BEF24BFB41A005003DD
:1000D6002461FFE511600215110514E5147002058F
:1000E6001330070E900276E475F0011205B3EF02A5
:1000F600058F020F9A7403D2078003E4C207F51036
:100106009002761205CAE4F511F513F514E51160AF
:10011600077F201200D980F57512FFC201C200C206
:1001260002C203C205C206C2081200A5FF700D3046
:1001360007057F001200EAAF14AE1322B4255FC292
:10014600D5C2041200A5FF24D0B40A00501A75F0D7
:100156000A781130D50508B6FF0106C6A426F62092
:10016600D5047002D20380D924CFB41A00EF50040C
:10017600C2E5D2040202EBD20180C6D20080C0D210
:100186000280BCD2D580BAD20580B47F201200D9B5
:100196002002077401B5110040F1120096FF12000B
:1001A600D9020113D208D2068095120096FB1200DE
:1001B60096FA120096F94A4B700679BC7A037BFFD1
:1001C60020022EE511602A7E008E827583001205BC
:1001D6006260060EEE651270F0C2D5EBC0E0EAC0B2
:1001E600E0E9C0E0EE120332D0E0F9D0E0FAD0E068
:1001F600FB1204F1FF60AAEBC0E0EAC0E0E9C0E050
:100206001200D9D0E02401F9D0E03400FAD0E0FBA6
:10021600E5120460DCD512D980877BFF7A03792E3C
:10022600D202809C791080027908C206C208800832
:10023600D2D5790A8004790AC2D5E512047002F58E
:1002460012E4FAFDFEFF120096FC7B082001131251
:100256000096FD7B1030000A120096FE120096FFF3
:100266007B20EC3382D592D55013C3E43000069F31
:10027600FFE49EFEE42001039DFDE49CFCE4CBF834
:10028600C201EC700CCFCECDCCE824F8F870F38028
:1002960017C3EF33FFEE33FEED33FDEC33FCEB33E8
:1002A600FB994002FB0FD8E9EB300105F8D0E0C41A
:1002B60048B201C0E00AEC4D4E4F78207B0070C278
:1002C600EAB5120040BCC0E0120334D0F0D0E02002
:1002D6000104C4C0E0C4B201C0F01200C2D0F0D51F
:1002E600F0EB0201131205D301B053022A58018123
:1002F6004C017D42022E4F02364402364901964396
:08030600023C550220460220D2
:10030E004502204703DC5001852D01892E01AC2BBF
:10031E00018D2301AA2003C52A014548000001A42E
:10032E003F3F3F00790AA2D5200314300509B910CA
:10033E00020404B9080104A2D520060250010420CB
:10034E0002689202B511005034C0E07F20300319CC
:10035E007F30A20272067205500F12038BC202C2C8
:10036E0006C205C2087F30800F300503E9C0E012D7
:10037E0000D9300503D0E0F9D0E0B511CC30051727
:10038E007F30B9100C1200D97F583004077F788067
:10039E0003B908031200D93002057F2D0200D97F60
:1003AE00202008F87F2B2006F322920280CF286EA1
:1003BE00756C6C2900D2011200963001F8C20178DA
:1003CE001130D50108F60201452D5043495812004F
:1003DE00962403B405004001E49003D7931200CA9B
:0D03EE00743A1200CAD20375110402022AEB
:10000E00E4FFFE1204F1600C0FEF70010E09E970AF
:05001E00F20A80EF2250
:1009960090029EEBF0A3EAF0A3E9F0A3E0FBA3E04C
:1009A600FAA3E0F91204F17003020A4290029EE0F3
:1009B600FBA3E0FAA3E0F91204F17003020A4E90D9
:1009C60002A1E0F9A3E0FAA3E0A3C9F0A3EAF0A329
:1009D600E9F090029EA3E0FAA3E0F99002A7EBF0FB
:1009E600A3EAF0A3E9F09002A4E0FBA3E0FAA3E0F7
:1009F600F91204F1FF60269002A7E0FBA3E0FAA338
:100A0600E0F91204F16F70159002A575F001120558
:100A16000A9002A8E475F00112050A80C99002A4A2
:100A2600E0FBA3E0FAA3E0F91204F17002800D9056
:100A3600029FE475F00112050A0209B290029EE0D7
:0F0A4600FBA3E0FAA3E0F9227B007A00790022FB
:1007E30090029EEBF0A3EAF0A3E9F090029EE0FBF7
:1007F300A3E0FAA3E0F91204F1FF120F86500C9064
:10080300029FE475F00112050A80E0D20990029E6E
:10081300E0FBA3E0FAA3E0F91204F1FF642B600408
:10082300EFB42D1D90029EE0FBA3E475F0011205C9
:1008330020A9F0FA1204F1642D6003D38001C3925E
:1008430009E49002A1F0A3F090029EE0FBA3E0FA7A
:10085300A3E0F91204F1FF121002504290029EE04D
:10086300FBA3E0FAA3E0F91204F1FF3395E0FEEFF6
:1008730024D0FBEE34FFFA9002A1E0FEA3E0FF7C5C
:10088300007D0A1205A1EF2BFFEE3A9002A1F0A31F
:10089300EFF090029FE475F00112050A80AA300977
:1008A3000A9002A1E0FEA3E0FF800F9002A1E0FE08
:0B08B300A3E0FFC3E49FFFE49EFE22D1
:10053600EF4E6012EF60010EEDBB010B89828A83DC
:10054600F0A3DFFCDEFA2289F05007F709DFFCA9E9
:0C055600F022BBFEFCF309DFFCA9F02240
:10056200BB010CE58229F582E5833AF583E022504E
:1005720006E92582F8E622BBFE06E92582F8E22298
:0D058200E58229F582E5833AF583E49322B2
:10058F00BB010689828A83F0225002F722BBFE014B
:02059F00F32245
:1005A100EF8DF0A4A8F0CF8CF0A428CE8DF0A42E6E
:0205B100FE2228
:1005B300F8E0FBA3A3E0F925F0F0E58215827002D1
:0705C3001583E0FA38F02275
:0905CA00EBF0A3EAF0A3E9F02232
:1005D300D083D082F8E4937012740193700DA3A3B7
:1005E30093F8740193F5828883E4737402936860CB
:0605F300EFA3A3A380DFCB
:0F100200EFC394304007EF943A50028001C322AD
:100F8600EFC394094005EF940E4004EFB42003D359
:040F96008001C322F1
:00000001FF
